{
  "_format": "hh-sol-artifact-1",
  "contractName": "EcommerceEscrow",
  "sourceName": "contracts/EcommerceEscrow.sol",
  "abi": [
    {
      "inputs": [],
      "stateMutability": "nonpayable",
      "type": "constructor"
    },
    {
      "anonymous": false,
      "inputs": [
        {
          "indexed": false,
          "internalType": "uint256",
          "name": "id",
          "type": "uint256"
        },
        {
          "indexed": false,
          "internalType": "string",
          "name": "name",
          "type": "string"
        },
        {
          "indexed": false,
          "internalType": "uint256",
          "name": "price",
          "type": "uint256"
        },
        {
          "indexed": false,
          "internalType": "address",
          "name": "seller",
          "type": "address"
        }
      ],
      "name": "ProductAdded",
      "type": "event"
    },
    {
      "anonymous": false,
      "inputs": [
        {
          "indexed": false,
          "internalType": "uint256",
          "name": "id",
          "type": "uint256"
        },
        {
          "indexed": false,
          "internalType": "address",
          "name": "buyer",
          "type": "address"
        }
      ],
      "name": "ProductPurchased",
      "type": "event"
    },
    {
      "inputs": [
        {
          "internalType": "string",
          "name": "_name",
          "type": "string"
        },
        {
          "internalType": "string",
          "name": "_description",
          "type": "string"
        },
        {
          "internalType": "uint256",
          "name": "_price",
          "type": "uint256"
        }
      ],
      "name": "addProduct",
      "outputs": [],
      "stateMutability": "nonpayable",
      "type": "function"
    },
    {
      "inputs": [
        {
          "internalType": "uint256",
          "name": "_id",
          "type": "uint256"
        }
      ],
      "name": "confirmDelivery",
      "outputs": [],
      "stateMutability": "nonpayable",
      "type": "function"
    },
    {
      "inputs": [
        {
          "internalType": "uint256",
          "name": "_id",
          "type": "uint256"
        }
      ],
      "name": "getProduct",
      "outputs": [
        {
          "internalType": "string",
          "name": "",
          "type": "string"
        },
        {
          "internalType": "string",
          "name": "",
          "type": "string"
        },
        {
          "internalType": "uint256",
          "name": "",
          "type": "uint256"
        },
        {
          "internalType": "address",
          "name": "",
          "type": "address"
        },
        {
          "internalType": "bool",
          "name": "",
          "type": "bool"
        }
      ],
      "stateMutability": "view",
      "type": "function"
    },
    {
      "inputs": [],
      "name": "owner",
      "outputs": [
        {
          "internalType": "address",
          "name": "",
          "type": "address"
        }
      ],
      "stateMutability": "view",
      "type": "function"
    },
    {
      "inputs": [],
      "name": "productCounter",
      "outputs": [
        {
          "internalType": "uint256",
          "name": "",
          "type": "uint256"
        }
      ],
      "stateMutability": "view",
      "type": "function"
    },
    {
      "inputs": [
        {
          "internalType": "uint256",
          "name": "_id",
          "type": "uint256"
        }
      ],
      "name": "purchaseProduct",
      "outputs": [],
      "stateMutability": "payable",
      "type": "function"
    },
    {
      "inputs": [
        {
          "internalType": "uint256",
          "name": "_id",
          "type": "uint256"
        }
      ],
      "name": "raiseDispute",
      "outputs": [],
      "stateMutability": "view",
      "type": "function"
    },
    {
      "inputs": [
        {
          "internalType": "uint256",
          "name": "_id",
          "type": "uint256"
        }
      ],
      "name": "requestRefund",
      "outputs": [],
      "stateMutability": "nonpayable",
      "type": "function"
    }
  ],
  "bytecode": "0x6080604052600060015534801561001557600080fd5b50336000806101000a81548173ffffffffffffffffffffffffffffffffffffffff021916908373ffffffffffffffffffffffffffffffffffffffff160217905550611c59806100656000396000f3fe60806040526004361061007b5760003560e01c8063a5c1674e1161004e578063a5c1674e1461011b578063b9db15b414610144578063f28ea1c114610185578063fd84cb97146101ae5761007b565b80631f16653b1461008057806338e76a03146100ab5780638da5cb5b146100c7578063a4b2409e146100f2575b600080fd5b34801561008c57600080fd5b506100956101d7565b6040516100a29190610f27565b60405180910390f35b6100c560048036038101906100c09190610f82565b6101dd565b005b3480156100d357600080fd5b506100dc610398565b6040516100e99190610ff0565b60405180910390f35b3480156100fe57600080fd5b5061011960048036038101906101149190610f82565b6103bc565b005b34801561012757600080fd5b50610142600480360381019061013d9190610f82565b6105a1565b005b34801561015057600080fd5b5061016b60048036038101906101669190610f82565b6107a5565b60405161017c9594939291906110b6565b60405180910390f35b34801561019157600080fd5b506101ac60048036038101906101a7919061124c565b610a16565b005b3480156101ba57600080fd5b506101d560048036038101906101d09190610f82565b610cd8565b005b60015481565b8080600260008381526020019081526020016000206000015414610236576040517f08c379a000000000000000000000000000000000000000000000000000000000815260040161022d90611323565b60405180910390fd5b816002600082815260200190815260200160002060050160149054906101000a900460ff161561029b576040517f08c379a00000000000000000000000000000000000000000000000000000000081526004016102929061138f565b60405180910390fd5b600060026000858152602001908152602001600020905080600301543410156102f9576040517f08c379a00000000000000000000000000000000000000000000000000000000081526004016102f0906113fb565b60405180910390fd5b338160050160006101000a81548173ffffffffffffffffffffffffffffffffffffffff021916908373ffffffffffffffffffffffffffffffffffffffff16021790555060018160050160146101000a81548160ff0219169083151502179055507f9ad4ecfaf27ea0cbeebee0ed92fe15c8a84975f1e3d45ccfc526d7751dcf98ff843360405161038a92919061141b565b60405180910390a150505050565b60008054906101000a900473ffffffffffffffffffffffffffffffffffffffff1681565b8080600260008381526020019081526020016000206000015414610415576040517f08c379a000000000000000000000000000000000000000000000000000000000815260040161040c90611323565b60405180910390fd5b60006002600084815260200190815260200160002090508060050160009054906101000a900473ffffffffffffffffffffffffffffffffffffffff1673ffffffffffffffffffffffffffffffffffffffff163373ffffffffffffffffffffffffffffffffffffffff16146104be576040517f08c379a00000000000000000000000000000000000000000000000000000000081526004016104b5906114b6565b60405180910390fd5b8060050160159054906101000a900460ff1615610510576040517f08c379a000000000000000000000000000000000000000000000000000000000815260040161050790611522565b60405180910390fd5b8060050160009054906101000a900473ffffffffffffffffffffffffffffffffffffffff1673ffffffffffffffffffffffffffffffffffffffff166108fc82600301549081150290604051600060405180830381858888f1935050505015801561057e573d6000803e3d6000fd5b5060008160050160146101000a81548160ff021916908315150217905550505050565b80806002600083815260200190815260200160002060000154146105fa576040517f08c379a00000000000000000000000000000000000000000000000000000000081526004016105f190611323565b60405180910390fd5b60006002600084815260200190815260200160002090508060050160009054906101000a900473ffffffffffffffffffffffffffffffffffffffff1673ffffffffffffffffffffffffffffffffffffffff163373ffffffffffffffffffffffffffffffffffffffff1614806106be57508060040160009054906101000a900473ffffffffffffffffffffffffffffffffffffffff1673ffffffffffffffffffffffffffffffffffffffff163373ffffffffffffffffffffffffffffffffffffffff16145b6106fd576040517f08c379a00000000000000000000000000000000000000000000000000000000081526004016106f4906115b4565b60405180910390fd5b8060050160149054906101000a900460ff1661074e576040517f08c379a000000000000000000000000000000000000000000000000000000000815260040161074590611620565b60405180910390fd5b8060050160159054906101000a900460ff16156107a0576040517f08c379a00000000000000000000000000000000000000000000000000000000081526004016107979061168c565b60405180910390fd5b505050565b6060806000806000806002600088815260200190815260200160002060405180610100016040529081600082015481526020016001820180546107e7906116db565b80601f0160208091040260200160405190810160405280929190818152602001828054610813906116db565b80156108605780601f1061083557610100808354040283529160200191610860565b820191906000526020600020905b81548152906001019060200180831161084357829003601f168201915b50505050508152602001600282018054610879906116db565b80601f01602080910402602001604051908101604052809291908181526020018280546108a5906116db565b80156108f25780601f106108c7576101008083540402835291602001916108f2565b820191906000526020600020905b8154815290600101906020018083116108d557829003601f168201915b50505050508152602001600382015481526020016004820160009054906101000a900473ffffffffffffffffffffffffffffffffffffffff1673ffffffffffffffffffffffffffffffffffffffff1673ffffffffffffffffffffffffffffffffffffffff1681526020016005820160009054906101000a900473ffffffffffffffffffffffffffffffffffffffff1673ffffffffffffffffffffffffffffffffffffffff1673ffffffffffffffffffffffffffffffffffffffff1681526020016005820160149054906101000a900460ff161515151581526020016005820160159054906101000a900460ff161515151581525050905080602001518160400151826060015183608001518460c00151955095509550955095505091939590929450565b60008054906101000a900473ffffffffffffffffffffffffffffffffffffffff1673ffffffffffffffffffffffffffffffffffffffff163373ffffffffffffffffffffffffffffffffffffffff1614610aa4576040517f08c379a0000000000000000000000000000000000000000000000000000000008152600401610a9b90611758565b60405180910390fd5b60008111610ae7576040517f08c379a0000000000000000000000000000000000000000000000000000000008152600401610ade906117c4565b60405180910390fd5b60016000815480929190610afa90611813565b919050555060405180610100016040528060015481526020018481526020018381526020018281526020013373ffffffffffffffffffffffffffffffffffffffff168152602001600073ffffffffffffffffffffffffffffffffffffffff16815260200160001515815260200160001515815250600260006001548152602001908152602001600020600082015181600001556020820151816001019081610ba29190611a07565b506040820151816002019081610bb89190611a07565b506060820151816003015560808201518160040160006101000a81548173ffffffffffffffffffffffffffffffffffffffff021916908373ffffffffffffffffffffffffffffffffffffffff16021790555060a08201518160050160006101000a81548173ffffffffffffffffffffffffffffffffffffffff021916908373ffffffffffffffffffffffffffffffffffffffff16021790555060c08201518160050160146101000a81548160ff02191690831515021790555060e08201518160050160156101000a81548160ff0219169083151502179055509050507f52402cafb2ecec722b103e8f203f83362148c168659dc96678c2c6850d12dd9f600154848333604051610ccb9493929190611ad9565b60405180910390a1505050565b8080600260008381526020019081526020016000206000015414610d31576040517f08c379a0000000000000000000000000000000000000000000000000000000008152600401610d2890611323565b60405180910390fd5b60006002600084815260200190815260200160002090508060050160009054906101000a900473ffffffffffffffffffffffffffffffffffffffff1673ffffffffffffffffffffffffffffffffffffffff163373ffffffffffffffffffffffffffffffffffffffff1614610dda576040517f08c379a0000000000000000000000000000000000000000000000000000000008152600401610dd190611b97565b60405180910390fd5b8060050160149054906101000a900460ff16610e2b576040517f08c379a0000000000000000000000000000000000000000000000000000000008152600401610e2290611620565b60405180910390fd5b8060050160159054906101000a900460ff1615610e7d576040517f08c379a0000000000000000000000000000000000000000000000000000000008152600401610e7490611c03565b60405180910390fd5b8060040160009054906101000a900473ffffffffffffffffffffffffffffffffffffffff1673ffffffffffffffffffffffffffffffffffffffff166108fc82600301549081150290604051600060405180830381858888f19350505050158015610eeb573d6000803e3d6000fd5b5060018160050160156101000a81548160ff021916908315150217905550505050565b6000819050919050565b610f2181610f0e565b82525050565b6000602082019050610f3c6000830184610f18565b92915050565b6000604051905090565b600080fd5b600080fd5b610f5f81610f0e565b8114610f6a57600080fd5b50565b600081359050610f7c81610f56565b92915050565b600060208284031215610f9857610f97610f4c565b5b6000610fa684828501610f6d565b91505092915050565b600073ffffffffffffffffffffffffffffffffffffffff82169050919050565b6000610fda82610faf565b9050919050565b610fea81610fcf565b82525050565b60006020820190506110056000830184610fe1565b92915050565b600081519050919050565b600082825260208201905092915050565b60005b8381101561104557808201518184015260208101905061102a565b60008484015250505050565b6000601f19601f8301169050919050565b600061106d8261100b565b6110778185611016565b9350611087818560208601611027565b61109081611051565b840191505092915050565b60008115159050919050565b6110b08161109b565b82525050565b600060a08201905081810360008301526110d08188611062565b905081810360208301526110e48187611062565b90506110f36040830186610f18565b6111006060830185610fe1565b61110d60808301846110a7565b9695505050505050565b600080fd5b600080fd5b7f4e487b7100000000000000000000000000000000000000000000000000000000600052604160045260246000fd5b61115982611051565b810181811067ffffffffffffffff8211171561117857611177611121565b5b80604052505050565b600061118b610f42565b90506111978282611150565b919050565b600067ffffffffffffffff8211156111b7576111b6611121565b5b6111c082611051565b9050602081019050919050565b82818337600083830152505050565b60006111ef6111ea8461119c565b611181565b90508281526020810184848401111561120b5761120a61111c565b5b6112168482856111cd565b509392505050565b600082601f83011261123357611232611117565b5b81356112438482602086016111dc565b91505092915050565b60008060006060848603121561126557611264610f4c565b5b600084013567ffffffffffffffff81111561128357611282610f51565b5b61128f8682870161121e565b935050602084013567ffffffffffffffff8111156112b0576112af610f51565b5b6112bc8682870161121e565b92505060406112cd86828701610f6d565b9150509250925092565b7f50726f6475637420646f6573206e6f7420657869737400000000000000000000600082015250565b600061130d601683611016565b9150611318826112d7565b602082019050919050565b6000602082019050818103600083015261133c81611300565b9050919050565b7f50726f6475637420616c72656164792070757263686173656400000000000000600082015250565b6000611379601983611016565b915061138482611343565b602082019050919050565b600060208201905081810360008301526113a88161136c565b9050919050565b7f496e73756666696369656e742066756e64730000000000000000000000000000600082015250565b60006113e5601283611016565b91506113f0826113af565b602082019050919050565b60006020820190508181036000830152611414816113d8565b9050919050565b60006040820190506114306000830185610f18565b61143d6020830184610fe1565b9392505050565b7f4f6e6c79207468652062757965722063616e207265717565737420612072656660008201527f756e640000000000000000000000000000000000000000000000000000000000602082015250565b60006114a0602383611016565b91506114ab82611444565b604082019050919050565b600060208201905081810360008301526114cf81611493565b9050919050565b7f43616e6e6f7420726566756e642061667465722064656c697665727900000000600082015250565b600061150c601c83611016565b9150611517826114d6565b602082019050919050565b6000602082019050818103600083015261153b816114ff565b9050919050565b7f4f6e6c79206275796572206f722073656c6c65722063616e207261697365206160008201527f2064697370757465000000000000000000000000000000000000000000000000602082015250565b600061159e602883611016565b91506115a982611542565b604082019050919050565b600060208201905081810360008301526115cd81611591565b9050919050565b7f50726f64756374206d7573742062652070757263686173656400000000000000600082015250565b600061160a601983611016565b9150611615826115d4565b602082019050919050565b60006020820190508181036000830152611639816115fd565b9050919050565b7f43616e6e6f7420646973707574652061667465722064656c6976657279000000600082015250565b6000611676601d83611016565b915061168182611640565b602082019050919050565b600060208201905081810360008301526116a581611669565b9050919050565b7f4e487b7100000000000000000000000000000000000000000000000000000000600052602260045260246000fd5b600060028204905060018216806116f357607f821691505b602082108103611706576117056116ac565b5b50919050565b7f4e6f7420617574686f72697a6564000000000000000000000000000000000000600082015250565b6000611742600e83611016565b915061174d8261170c565b602082019050919050565b6000602082019050818103600083015261177181611735565b9050919050565b7f5072696365206d7573742062652067726561746572207468616e207a65726f00600082015250565b60006117ae601f83611016565b91506117b982611778565b602082019050919050565b600060208201905081810360008301526117dd816117a1565b9050919050565b7f4e487b7100000000000000000000000000000000000000000000000000000000600052601160045260246000fd5b600061181e82610f0e565b91507fffffffffffffffffffffffffffffffffffffffffffffffffffffffffffffffff82036118505761184f6117e4565b5b600182019050919050565b60008190508160005260206000209050919050565b60006020601f8301049050919050565b600082821b905092915050565b6000600883026118bd7fffffffffffffffffffffffffffffffffffffffffffffffffffffffffffffffff82611880565b6118c78683611880565b95508019841693508086168417925050509392505050565b6000819050919050565b60006119046118ff6118fa84610f0e565b6118df565b610f0e565b9050919050565b6000819050919050565b61191e836118e9565b61193261192a8261190b565b84845461188d565b825550505050565b600090565b61194761193a565b611952818484611915565b505050565b5b818110156119765761196b60008261193f565b600181019050611958565b5050565b601f8211156119bb5761198c8161185b565b61199584611870565b810160208510156119a4578190505b6119b86119b085611870565b830182611957565b50505b505050565b600082821c905092915050565b60006119de600019846008026119c0565b1980831691505092915050565b60006119f783836119cd565b9150826002028217905092915050565b611a108261100b565b67ffffffffffffffff811115611a2957611a28611121565b5b611a3382546116db565b611a3e82828561197a565b600060209050601f831160018114611a715760008415611a5f578287015190505b611a6985826119eb565b865550611ad1565b601f198416611a7f8661185b565b60005b82811015611aa757848901518255600182019150602085019450602081019050611a82565b86831015611ac45784890151611ac0601f8916826119cd565b8355505b6001600288020188555050505b505050505050565b6000608082019050611aee6000830187610f18565b8181036020830152611b008186611062565b9050611b0f6040830185610f18565b611b1c6060830184610fe1565b95945050505050565b7f4f6e6c79207468652062757965722063616e20636f6e6669726d2064656c697660008201527f6572790000000000000000000000000000000000000000000000000000000000602082015250565b6000611b81602383611016565b9150611b8c82611b25565b604082019050919050565b60006020820190508181036000830152611bb081611b74565b9050919050565b7f44656c697665727920616c726561647920636f6e6669726d6564000000000000600082015250565b6000611bed601a83611016565b9150611bf882611bb7565b602082019050919050565b60006020820190508181036000830152611c1c81611be0565b905091905056fea26469706673582212209c652e60ecf1cd0f4b2704cc697445213e99939a9d8d7e7a6e8bdd515424151564736f6c63430008180033",
  "linkReferences": {},
  "deployedLinkReferences": {}
}